:020000040800F2
:10000000780600203902000819090008B508000820
:10001000150900089B070008190F000800000000E0
:10002000000000000000000000000000CD0B0008F0
:100030009F07000800000000450A0008050D0008A1
:10004000530200085302000853020008530200083C
:10005000530200085302000853020008530200082C
:10006000530200085302000853020008530200081C
:10007000530200085302000853020008530200080C
:1000800053020008530200085302000853020008FC
:10009000530200085302000853020008A107000899
:1000A00053020008530200085302000853020008DC
:1000B00053020008530200085302000853020008CC
:1000C00053020008530200085302000853020008BC
:1000D00053020008950D000853020008530200085F
:1000E000530200085302000853020008530200089C
:1000F000530200085302000853020008530200088C
:10010000530200085302000853020008530200087B
:10011000530200085302000853020008530200086B
:10012000530200085302000853020008530200085B
:10013000530200085302000853020008530200084B
:10014000530200085302000853020008530200083B
:10015000530200085302000853020008530200082B
:10016000530200085302000853020008530200081B
:10017000530200085302000853020008530200080B
:10018000530200085302000800F002F800F044F89F
:100190000AA090E8000C82448344AAF10107DA45E2
:1001A00001D100F039F8AFF2090EBAE80F0013F0F0
:1001B000010F18BFFB1A43F001031847040F00009A
:1001C000240F0000103A24BF78C878C1FAD852072B
:1001D00024BF30C830C144BF04680C6070470000C1
:1001E0000023002400250026103A28BF78C1FBD840
:1001F000520728BF30C148BF0B607047642900F028
:10020000A780732900F04F81002070471FB500F0D0
:1002100051FF1FBD10B510BD00F078F91146FFF772
:10022000F5FF00F015FF00F096F903B4FFF7F2FFB9
:1002300003BC00F0CBFE0000094880470948004796
:10024000FEE7FEE7FEE7FEE7FEE7FEE7FEE7FEE786
:10025000FEE7FEE704480549054A064B70470000E3
:10026000090D0008890100087800002078060020A8
:100270007802002078020020704700000FB4044983
:1002800010B503AA029800F013F910BC5DF814FB36
:10029000140000202DE9F0410E46044600202062A3
:1002A0002046E168884730B3252805D0D4E90121EC
:1002B0009047206A401CF2E7E16820460027884703
:1002C000050018D0A5F14100192802D820354FF4B7
:1002D00000673246294620462760FFF78FFF40B16E
:1002E000012804D0F61D26F007060836D8E7361D8B
:1002F000D6E72846DAE7206ABDE8F08170B50C46FB
:100300000546012A05D02878800600D5EA69002331
:1003100002E0012305E05B1C934202D2E05C00286E
:10032000F9D1A869E618C01AA861286A1844286299
:100330002846AFF3008004E0D5E9012114F8010B51
:100340009047B442F8D32846AFF3008070BD000058
:100350002DE9F0410646002410687529314616A59E
:1003600010D0AFF30080002802DA404213A507E066
:1003700031688A0701D512A502E0490704D511A505
:10038000012401E0AFF3008000210A2206F12407D6
:1003900009E0B0FBF2FCB0FBF2F302FB1C003030D2
:1003A00078541846491C0028F3D123462A46304683
:1003B000BDE8F04100F00CB8000000002D00000086
:1003C0002B00000020000000704770477047704706
:1003D0002DE9F0470D4699469246044600F124085F
:1003E0000168880604D5E06921F01001216000E071
:1003F0000120A84201DD471B00E00027A1697A190E
:1004000002EB0900081AA0612078C00602D4204639
:10041000AFF30080002608E0D4E901211AF80600B5
:100420009047206A401C761C20624E45F4DB207801
:10043000C0060AD52046AFF3008006E0D4E90121CA
:1004400030209047206A401C2062381EA7F1010727
:10045000F4DC07E0D4E9012118F805009047206A90
:10046000401C2062281EA5F10105F3DC2046AFF3F5
:1004700000802078000602D50220BDE8F087012028
:10048000FBE710B5436913B1AFF3008001E0FFF75C
:1004900035FF012010BD127800F124010A700022FE
:1004A0004A700122EDE711684FF0FF32E9E70000E2
:1004B000074B70B50D467B4400F011F80446284602
:1004C00000F020F810B14FF0FF3070BD204670BD35
:1004D0007F0B000001694A1C02610878704700B573
:1004E0008FB0CDE901310021059105497944CDE96D
:1004F000031011466846FFF7CDFE0FB000BD0000A7
:10050000E5FFFFFF007B00F080007047754600F0BC
:1005100029F8AE4605006946534620F00700854697
:1005200018B020B5FFF796FEBDE820404FF000065A
:100530004FF000074FF000084FF0000B21F00701CB
:10054000AC46ACE8C009ACE8C009ACE8C009ACE80E
:10055000C0098D4670470446AFF300802046FFF780
:1005600064FE0000004870471800002000B58DB000
:100570000121202000F068FA0121880200F074FABD
:1005800003208DF8300000208DF8320080200B9081
:1005900000208DF833008DF831000BA9134800F0CE
:1005A00011F9002007900A9009904FF480300890CC
:1005B00007A800F02BF800208DF8090005900390A3
:1005C00001208DF81800002001908DF8080001A985
:1005D000074800F057F80121054800F02FF80121E5
:1005E000034800F037F80DB000BD000000140240D1
:1005F0000022014021B1826842F00102826003E0E2
:10060000826822F001028260704700000021084ADF
:100610001168084A1140D0E900231A4383681A433D
:10062000C3681A431143044AC2F804137047000018
:1006300004230140E030FCFF0020014010B50A46D1
:1006400000210023416821F46041531E41EA4331F7
:10065000416010BD21B1426842F40062426003E093
:10066000426822F40062426070470146C86C80B262
:1006700070470246002013680B400BB1012000E0D8
:100680000020704730B50246002000235068104C0F
:1006900020400D790C6844EA05242043506090689E
:1006A0000C4C2040D1E903542C438D682C434D79E8
:1006B00044EA450420439060D06A20F470000C7D29
:1006C000641EE4B2234340EA0350D06230BD000010
:1006D000FFFEFFFCFDF7FFC0F0B504460D4600200D
:1006E0000021092D11DDE068A5F10A0606EB460799
:1006F000072606FA07F18843A5F10A0606EB460627
:1007000003FA06F10843E0600CE0206905EB4507B9
:10071000072606FA07F1884305EB450603FA06F1BA
:1007200008432061072A0FDA606B561E06EB860726
:100730001F2606FA07F18843561E06EB860605FAC1
:1007400006F10843606322E00D2A0FDA206BD61F02
:1007500006EB86071F2606FA07F18843D61F06EB2D
:10076000860605FA06F10843206310E0E06AA2F16C
:100770000D0606EB86071F2606FA07F18843A2F14D
:100780000D0606EB860605FA06F10843E062F0BDA9
:10079000816841F080418160704700BFFEE770478B
:1007A00010B58021064800F078F8012803D10F2009
:1007B00000F0F0F802E00F2000F018F910BD000082
:1007C00000140240F0B50A4600210023002400BFB7
:1007D0003DE0012505FA01F3156805EA03049C4292
:1007E00034D105684F000326BE40B5430560157936
:1007F0004E00B5400668354305601579012D02D0DD
:100800001579022D16D185684F000326BE40B543E9
:10081000856055794E00B5408668354385604568EA
:1008200001268E40B5434560456896798E40B6B244
:1008300035434560C5684F000326BE40B543C560DB
:10084000D5794E00B540C6683543C560491C1029AE
:10085000BFD3F0BDF0B5002300244D07ED0E02FA22
:1008600005F3CE1000F1200555F826504E07F70E7F
:100870000F26BE40B543CF1000F1200646F82750A2
:10088000CE1000F1200555F8265045EA0304CE109D
:1008900000F1200545F82640F0BD0246002013690E
:1008A0000B400BB1012000E00020704741837047EE
:1008B0000183704700BFFEE71CB50121302000F026
:1008C000C3F801208DF804004FF4C06000900020B0
:1008D0008DF8060001208DF8070000208DF8050036
:1008E00069460A48FFF76EFF4FF4C0400090694622
:1008F0000748FFF767FF4FF4C0610448FFF7D8FFD0
:100900004FF4C0410248FFF7D3FF1CBD0014024062
:100910000010024000BFFEE77047000070B50021E4
:1009200000230F22C4781CB3174C246804F4E0643D
:10093000C4F5E064C4F30721C1F10404E3B20A4141
:1009400044789C40E1B28478144021430C07210E86
:100950000E4C05786155047804F01F050124AC4065
:1009600005786D11AD0005F1E025C5F8004109E0FD
:10097000047804F01F050124AC40054D067876117B
:1009800045F8264070BD00000CED00E000E400E0FA
:1009900080E100E010B5044664F00100C04320B9D6
:1009A0004FF400710F48FFF781FF64F00200C0436D
:1009B00020B94FF480610B48FFF778FF64F0040022
:1009C000C04320B94FF400510748FFF76FFF64F0B0
:1009D0000800C04320B94FF480410348FFF766FF89
:1009E00010BD0000001402400010024010B5044683
:1009F00064F00100C04320B94FF400710F48FFF7C5
:100A000057FF64F00200C04320B94FF480610B48E7
:100A1000FFF74EFF64F00400C04320B94FF40051CB
:100A20000748FFF745FF64F00800C04320B94FF4C2
:100A300080410348FFF73CFF10BD00000014024056
:100A4000001002407047000029B1064A12680243B4
:100A5000044B1A6004E0034A12688243014B1A6097
:100A6000704700003038024029B1064A126802433C
:100A7000044B1A6004E0034A12688243014B1A6077
:100A80007047000044380240F0B5002100220024E5
:100A9000022500260223324F3F6807F00C0121B1E6
:100AA000042905D0082937D105E02E4F076036E02C
:100AB0002D4F076033E02A4F3F1F3F68C7F3805632
:100AC000274F3F1F3F6807F03F036EB1264FB7FB2C
:100AD000F3F7DFF88CC0ACF1040CDCF800C0CCF309
:100AE000881C07FB0CF40CE01E4FB7FBF3F7DFF894
:100AF00070C0ACF1040CDCF800C0CCF3881C07FB20
:100B00000CF4174F3F1F3F68C7F301477F1C7D0060
:100B1000B4FBF5F7076002E0124F076000BF00BFAB
:100B20000F4F3F6807F0F0010909104F7A5C076822
:100B3000D74047600A4F3F6807F4E051890A0B4FDE
:100B40007A5C4768D7408760054F3F6807F460418B
:100B5000490B064F7A5C4768D740C760F0BD00007C
:100B6000083802400024F40000127A00000000203F
:100B700010B501210D48FFF73DFD07230122052196
:100B80000A48FFF7A9FD0948FFF702FE00BF02214E
:100B90000648FFF76EFD0028F9D000210348FFF753
:100BA00029FD0248FFF761FD10BD00000022014051
:100BB00030B5002204E08B88DDB21346521CC554C8
:100BC0000B8803F02003002BF5D130BD70470000E7
:100BD00070B504460D4600BF288800F0800000284C
:100BE000FAD0214601A0FFF749FB70BD2573000034
:100BF0000CB50020019000903448006840F480302B
:100C00003249086000BF3148006800F400300090AD
:100C10000198401C0190009818B90198B0F5A04FB8
:100C2000F1D12A48006800F4003010B10120009092
:100C300001E0002000900098012846D12348403070
:100C4000006840F080502149403108602048006829
:100C500040F440401E4908601C48083000681B49A9
:100C6000083108600846006840F400400860084603
:100C7000006840F4A05008601648091F0860081F6B
:100C8000006840F08070091F086000BF0F480068CE
:100C900000F000700028F9D040F205700E4908609D
:100CA0000A480830006820F003000849083108604D
:100CB0000846006840F00200086000BF03480830A2
:100CC000006800F00C000828F8D10CBD0038024084
:100CD0000070004008544007003C0240042808D13E
:100CE0004FF0E021096941F004014FF0E022116169
:100CF00007E04FF0E021096921F004014FF0E02204
:100D0000116170477047000010B51548006840F445
:100D10007000134908601348006840F00100114951
:100D2000086000200F49083108600E4800680E492D
:100D300008400C4908600D48091D0860081F00683C
:100D400020F48020091F0860002006490C3108604B
:100D5000FFF74EFF4FF0006001498039086010BD79
:100D600088ED00E000380240FFFFF6FE103000245E
:100D700010B56FF00400FFF7B1FF152003490870AC
:100D800045F208200249088010BD00001000002034
:100D9000120000203EB500246D462021094800F0D5
:100DA0001FF870B100BF02E000202855641C0A2C17
:100DB000FADB04492846FFF7FBFE02492846FFF705
:100DC00007FF3EBD0010014021B1828942F400526C
:100DD000828104E082894DF6FF731A408281704758
:100DE00002460020B1F5007F00D100BF13880B4000
:100DF0000BB1012000E000207047F0B5034600244D
:100E000000260025002040F66A17B94200D100BF35
:100E10001846C1F3421401F01F06012707FA06F530
:100E2000012C01D10C3004E0022C01D1103000E083
:100E300014301AB107682F43076002E00768AF4318
:100E40000760F0BD2DE9FF4705460E460024A14688
:100E500000BFA046B08900B100BF2C8A24F44054E2
:100E6000F08804432C82AC8941F20C608443B08842
:100E700031890843718908430443AC81AC8A24F466
:100E80004074B0890443AC826846FFF7FDFD2048FA
:100E9000854202D01F48854202D1DDF80C9001E066
:100EA000DDF80890A88900F4004040B109EBC900C2
:100EB00000EB091031684900B0FBF1F707E009EBDE
:100EC000C90000EB091031688900B0FBF1F764201C
:100ED000B7FBF0F004012009642101FB1078A88918
:100EE00000F4004040B1322000EBC800B0FBF1F04C
:100EF00000F00700044308E0322000EB08106421F2
:100F0000B0FBF1F000F00F0004432C81BDE8FF8737
:100F1000001001400014014000BFFEE710B588B08A
:100F2000044601211020FFF79FFD01210846FFF72D
:100F30008BFD072209212348FFF78CFC07220A2199
:100F40002048FFF787FC02208DF81C0000208DF858
:100F50001E004FF4C060069001208DF81F00022093
:100F60008DF81D0006A91748FFF72CFC02940020FD
:100F7000ADF814000C20ADF812000020ADF8100000
:100F8000ADF80E00ADF80C0002A90F48FFF75AFFAC
:100F9000012240F225510C48FFF72FFF25208DF844
:100FA000040001208DF8070000208DF805008DF861
:100FB000060001A8FFF7B2FC01210348FFF704FF78
:100FC00008B010BD000002400010014000BF704793
:100FD0000021104A128842434FF0E0235A61002258
:100FE0009A611A46126942F001021A6100BF4FF07D
:100FF000E022116901F48032002AF8D04FF0E0229B
:10100000126922F001024FF0E0231A6100229A6176
:10101000704700001200002010B5044608E04FF4AD
:10102000FA70FFF7D5FF4FF4FA70FFF7D1FF641E97
:10103000002CF4D110BD000000BF044A128802F059
:101040008002002AF9D0014B9880704700100140BF
:101050000024FFF78DFE4FF4E130FFF75FFFFFF74D
:101060002BFC0EA0FFF70AF9FFF780FA14E0FFF758
:101070007FFD044621460CA0FFF700F940F2DC504A
:10108000844203DD0F20FFF785FC02E00F20FFF70D
:10109000ADFC0120FFF7C0FFE9E70000496E69746D
:1010A000204F4B0D0A0000007468653A25640D0A54
:1010B000000000004FF04070E1EE100A70470000A1
:1010C000E01000080000002018000000C401000823
:1010D000F81000081800002060060000E001000879
:1010E00000000000010203040102030406070809CE
:0810F0000000000000000000F8
:040000050800018965
:00000001FF
